{
  "contractName": "AircraftManager",
  "abi": [
    {
      "inputs": [
        {
          "internalType": "string",
          "name": "_tailNumber",
          "type": "string"
        },
        {
          "internalType": "uint256",
          "name": "_initialHours",
          "type": "uint256"
        },
        {
          "internalType": "uint256",
          "name": "_pricePerHour",
          "type": "uint256"
        }
      ],
      "stateMutability": "nonpayable",
      "type": "constructor"
    },
    {
      "anonymous": false,
      "inputs": [
        {
          "indexed": false,
          "internalType": "address",
          "name": "pilot",
          "type": "address"
        },
        {
          "indexed": false,
          "internalType": "uint256",
          "name": "flightHours",
          "type": "uint256"
        },
        {
          "indexed": false,
          "internalType": "uint256",
          "name": "date",
          "type": "uint256"
        }
      ],
      "name": "LogFlightHour",
      "type": "event"
    },
    {
      "anonymous": false,
      "inputs": [
        {
          "indexed": false,
          "internalType": "address",
          "name": "mechanic",
          "type": "address"
        },
        {
          "indexed": false,
          "internalType": "uint256",
          "name": "date",
          "type": "uint256"
        }
      ],
      "name": "LogMaintenance",
      "type": "event"
    },
    {
      "inputs": [],
      "name": "aircraftStatus",
      "outputs": [
        {
          "internalType": "enum AircraftManager.Status",
          "name": "",
          "type": "uint8"
        }
      ],
      "stateMutability": "view",
      "type": "function"
    },
    {
      "inputs": [],
      "name": "breaker",
      "outputs": [
        {
          "internalType": "bool",
          "name": "",
          "type": "bool"
        }
      ],
      "stateMutability": "view",
      "type": "function"
    },
    {
      "inputs": [],
      "name": "flightHours",
      "outputs": [
        {
          "internalType": "uint256",
          "name": "",
          "type": "uint256"
        }
      ],
      "stateMutability": "view",
      "type": "function"
    },
    {
      "inputs": [
        {
          "internalType": "uint256",
          "name": "",
          "type": "uint256"
        }
      ],
      "name": "log",
      "outputs": [
        {
          "internalType": "uint256",
          "name": "date",
          "type": "uint256"
        },
        {
          "internalType": "address",
          "name": "pilot",
          "type": "address"
        },
        {
          "internalType": "uint256",
          "name": "flightHours",
          "type": "uint256"
        },
        {
          "internalType": "string",
          "name": "comment",
          "type": "string"
        }
      ],
      "stateMutability": "view",
      "type": "function"
    },
    {
      "inputs": [],
      "name": "tailNumber",
      "outputs": [
        {
          "internalType": "string",
          "name": "",
          "type": "string"
        }
      ],
      "stateMutability": "view",
      "type": "function"
    },
    {
      "stateMutability": "payable",
      "type": "receive"
    },
    {
      "inputs": [
        {
          "internalType": "address payable",
          "name": "_coowner",
          "type": "address"
        }
      ],
      "name": "addCoOwner",
      "outputs": [],
      "stateMutability": "nonpayable",
      "type": "function"
    },
    {
      "inputs": [
        {
          "internalType": "address payable",
          "name": "_coowner",
          "type": "address"
        }
      ],
      "name": "removeCoOwner",
      "outputs": [],
      "stateMutability": "nonpayable",
      "type": "function"
    },
    {
      "inputs": [
        {
          "internalType": "uint256",
          "name": "_newprice",
          "type": "uint256"
        }
      ],
      "name": "updatePrice",
      "outputs": [],
      "stateMutability": "nonpayable",
      "type": "function"
    },
    {
      "inputs": [],
      "name": "getBalance",
      "outputs": [
        {
          "internalType": "uint256",
          "name": "",
          "type": "uint256"
        }
      ],
      "stateMutability": "view",
      "type": "function"
    },
    {
      "inputs": [
        {
          "internalType": "uint256",
          "name": "_flighthours",
          "type": "uint256"
        },
        {
          "internalType": "string",
          "name": "_comment",
          "type": "string"
        }
      ],
      "name": "logFlightHours",
      "outputs": [
        {
          "internalType": "bool",
          "name": "",
          "type": "bool"
        }
      ],
      "stateMutability": "payable",
      "type": "function"
    },
    {
      "inputs": [
        {
          "internalType": "address payable",
          "name": "_mechanic",
          "type": "address"
        },
        {
          "internalType": "uint256",
          "name": "_maxPay",
          "type": "uint256"
        }
      ],
      "name": "sendToMechanic",
      "outputs": [
        {
          "internalType": "bool",
          "name": "",
          "type": "bool"
        }
      ],
      "stateMutability": "nonpayable",
      "type": "function"
    },
    {
      "inputs": [
        {
          "internalType": "uint256",
          "name": "_maxPay",
          "type": "uint256"
        }
      ],
      "name": "setMaxPayment",
      "outputs": [],
      "stateMutability": "nonpayable",
      "type": "function"
    },
    {
      "inputs": [
        {
          "internalType": "uint256",
          "name": "_amount",
          "type": "uint256"
        }
      ],
      "name": "ReceiveFromMechanic",
      "outputs": [
        {
          "internalType": "bool",
          "name": "",
          "type": "bool"
        }
      ],
      "stateMutability": "payable",
      "type": "function"
    },
    {
      "inputs": [],
      "name": "getFlightLog",
      "outputs": [
        {
          "components": [
            {
              "internalType": "uint256",
              "name": "date",
              "type": "uint256"
            },
            {
              "internalType": "address",
              "name": "pilot",
              "type": "address"
            },
            {
              "internalType": "uint256",
              "name": "flightHours",
              "type": "uint256"
            },
            {
              "internalType": "string",
              "name": "comment",
              "type": "string"
            }
          ],
          "internalType": "struct AircraftManager.FlightLog[]",
          "name": "",
          "type": "tuple[]"
        }
      ],
      "stateMutability": "view",
      "type": "function"
    },
    {
      "inputs": [],
      "name": "toggleEmergency",
      "outputs": [],
      "stateMutability": "nonpayable",
      "type": "function"
    },
    {
      "inputs": [],
      "name": "deleteAircraft",
      "outputs": [],
      "stateMutability": "nonpayable",
      "type": "function"
    }
  ],
  "bytecode": "0x60806040526000600960016101000a81548160ff0219169083151502179055503480156200002c57600080fd5b5060405162002265380380620022658339818101604052810190620000529190620001dc565b33600260006101000a81548173ffffffffffffffffffffffffffffffffffffffff021916908373ffffffffffffffffffffffffffffffffffffffff1602179055508260009080519060200190620000ab929190620000c3565b50816003819055508060018190555050505062000300565b828054600181600116156101000203166002900490600052602060002090601f016020900481019282601f106200010657805160ff191683800117855562000137565b8280016001018555821562000137579182015b828111156200013657825182559160200191906001019062000119565b5b5090506200014691906200014a565b5090565b5b80821115620001655760008160009055506001016200014b565b5090565b600082601f8301126200017b57600080fd5b8151620001926200018c8262000279565b6200024b565b91508082526020830160208301858383011115620001af57600080fd5b620001bc838284620002b0565b50505092915050565b600081519050620001d681620002e6565b92915050565b600080600060608486031215620001f257600080fd5b600084015167ffffffffffffffff8111156200020d57600080fd5b6200021b8682870162000169565b93505060206200022e86828701620001c5565b92505060406200024186828701620001c5565b9150509250925092565b6000604051905081810181811067ffffffffffffffff821117156200026f57600080fd5b8060405250919050565b600067ffffffffffffffff8211156200029157600080fd5b601f19601f8301169050602081019050919050565b6000819050919050565b60005b83811015620002d0578082015181840152602081019050620002b3565b83811115620002e0576000848401525b50505050565b620002f181620002a6565b8114620002fd57600080fd5b50565b611f5580620003106000396000f3fe6080604052600436106100f75760003560e01c8063948836861161008a578063df4505b811610059578063df4505b814610302578063e838cbdd1461032d578063f7a60ea61461035d578063f82c50f114610374576100fe565b80639488368614610244578063a43d7b7f1461026f578063ba4507a6146102ac578063cb38f82b146102d7576100fe565b8063339b174a116100c6578063339b174a146101a0578063563a4024146101c957806369b2ac8e146101f25780638d6cc56d1461021b576100fe565b80630f41e0d21461010357806312065fe01461012e5780631a0ed203146101595780632d1d274414610189576100fe565b366100fe57005b600080fd5b34801561010f57600080fd5b506101186103b4565b6040516101259190611bc6565b60405180910390f35b34801561013a57600080fd5b506101436103c7565b6040516101509190611d1e565b60405180910390f35b610173600480360381019061016e9190611664565b610462565b6040516101809190611bc6565b60405180910390f35b34801561019557600080fd5b5061019e610684565b005b3480156101ac57600080fd5b506101c760048036038101906101c29190611664565b610740565b005b3480156101d557600080fd5b506101f060048036038101906101eb91906115ff565b6107da565b005b3480156101fe57600080fd5b50610219600480360381019061021491906115ff565b6108df565b005b34801561022757600080fd5b50610242600480360381019061023d9190611664565b6109e4565b005b34801561025057600080fd5b50610259610a7e565b6040516102669190611ba4565b60405180910390f35b34801561027b57600080fd5b5061029660048036038101906102919190611628565b610be9565b6040516102a39190611bc6565b60405180910390f35b3480156102b857600080fd5b506102c1610d76565b6040516102ce9190611bfc565b60405180910390f35b3480156102e357600080fd5b506102ec610e14565b6040516102f99190611be1565b60405180910390f35b34801561030e57600080fd5b50610317610e27565b6040516103249190611d1e565b60405180910390f35b6103476004803603810190610342919061168d565b610e2d565b6040516103549190611bc6565b60405180910390f35b34801561036957600080fd5b506103726111ab565b005b34801561038057600080fd5b5061039b60048036038101906103969190611664565b61128f565b6040516103ab9493929190611d39565b60405180910390f35b600960019054906101000a900460ff1681565b600060011515600760003373ffffffffffffffffffffffffffffffffffffffff1673ffffffffffffffffffffffffffffffffffffffff16815260200190815260200160002060009054906101000a900460ff1615151461045c576040517f08c379a000000000000000000000000000000000000000000000000000000000815260040161045390611cde565b60405180910390fd5b47905090565b6000600960019054906101000a900460ff161561047e57600080fd5b6006548211156104c3576040517f08c379a00000000000000000000000000000000000000000000000000000000081526004016104ba90611c7e565b60405180910390fd5b81471015610506576040517f08c379a00000000000000000000000000000000000000000000000000000000081526004016104fd90611c3e565b60405180910390fd5b600560009054906101000a900473ffffffffffffffffffffffffffffffffffffffff1673ffffffffffffffffffffffffffffffffffffffff163373ffffffffffffffffffffffffffffffffffffffff1614806105af5750600260009054906101000a900473ffffffffffffffffffffffffffffffffffffffff1673ffffffffffffffffffffffffffffffffffffffff163373ffffffffffffffffffffffffffffffffffffffff16145b6105ee576040517f08c379a00000000000000000000000000000000000000000000000000000000081526004016105e590611cfe565b60405180910390fd5b6000600960006101000a81548160ff0219169083600181111561060d57fe5b0217905550600560009054906101000a900473ffffffffffffffffffffffffffffffffffffffff1673ffffffffffffffffffffffffffffffffffffffff166108fc839081150290604051600060405180830381858888f1935050505015801561067a573d6000803e3d6000fd5b5060019050919050565b600260009054906101000a900473ffffffffffffffffffffffffffffffffffffffff1673ffffffffffffffffffffffffffffffffffffffff163373ffffffffffffffffffffffffffffffffffffffff1614610714576040517f08c379a000000000000000000000000000000000000000000000000000000000815260040161070b90611c1e565b60405180910390fd5b600960019054906101000a900460ff1615600960016101000a81548160ff021916908315150217905550565b600260009054906101000a900473ffffffffffffffffffffffffffffffffffffffff1673ffffffffffffffffffffffffffffffffffffffff163373ffffffffffffffffffffffffffffffffffffffff16146107d0576040517f08c379a00000000000000000000000000000000000000000000000000000000081526004016107c790611c1e565b60405180910390fd5b8060068190555050565b600260009054906101000a900473ffffffffffffffffffffffffffffffffffffffff1673ffffffffffffffffffffffffffffffffffffffff163373ffffffffffffffffffffffffffffffffffffffff161461086a576040517f08c379a000000000000000000000000000000000000000000000000000000000815260040161086190611c1e565b60405180910390fd5b600960019054906101000a900460ff161561088457600080fd5b6001600760008373ffffffffffffffffffffffffffffffffffffffff1673ffffffffffffffffffffffffffffffffffffffff16815260200190815260200160002060006101000a81548160ff02191690831515021790555050565b600260009054906101000a900473ffffffffffffffffffffffffffffffffffffffff1673ffffffffffffffffffffffffffffffffffffffff163373ffffffffffffffffffffffffffffffffffffffff161461096f576040517f08c379a000000000000000000000000000000000000000000000000000000000815260040161096690611c1e565b60405180910390fd5b600960019054906101000a900460ff161561098957600080fd5b6000600760008373ffffffffffffffffffffffffffffffffffffffff1673ffffffffffffffffffffffffffffffffffffffff16815260200190815260200160002060006101000a81548160ff02191690831515021790555050565b600260009054906101000a900473ffffffffffffffffffffffffffffffffffffffff1673ffffffffffffffffffffffffffffffffffffffff163373ffffffffffffffffffffffffffffffffffffffff1614610a74576040517f08c379a0000000000000000000000000000000000000000000000000000000008152600401610a6b90611c1e565b60405180910390fd5b8060018190555050565b60606004805480602002602001604051908101604052809291908181526020016000905b82821015610be05783829060005260206000209060040201604051806080016040529081600082015481526020016001820160009054906101000a900473ffffffffffffffffffffffffffffffffffffffff1673ffffffffffffffffffffffffffffffffffffffff1673ffffffffffffffffffffffffffffffffffffffff16815260200160028201548152602001600382018054600181600116156101000203166002900480601f016020809104026020016040519081016040528092919081815260200182805460018160011615610100020316600290048015610bc85780601f10610b9d57610100808354040283529160200191610bc8565b820191906000526020600020905b815481529060010190602001808311610bab57829003601f168201915b50505050508152505081526020019060010190610aa2565b50505050905090565b6000600960019054906101000a900460ff1615610c0557600080fd5b60006001811115610c1257fe5b600960009054906101000a900460ff166001811115610c2d57fe5b14610c3757600080fd5b600260009054906101000a900473ffffffffffffffffffffffffffffffffffffffff1673ffffffffffffffffffffffffffffffffffffffff163373ffffffffffffffffffffffffffffffffffffffff1614610cc7576040517f08c379a0000000000000000000000000000000000000000000000000000000008152600401610cbe90611c1e565b60405180910390fd5b7f89015af9fb0fbfa1f6c7c396b5f1538e1db65958423f840a90365f882857bd448342604051610cf8929190611b44565b60405180910390a182600560006101000a81548173ffffffffffffffffffffffffffffffffffffffff021916908373ffffffffffffffffffffffffffffffffffffffff160217905550816006819055506001600960006101000a81548160ff02191690836001811115610d6757fe5b02179055506001905092915050565b60008054600181600116156101000203166002900480601f016020809104026020016040519081016040528092919081815260200182805460018160011615610100020316600290048015610e0c5780601f10610de157610100808354040283529160200191610e0c565b820191906000526020600020905b815481529060010190602001808311610def57829003601f168201915b505050505081565b600960009054906101000a900460ff1681565b60035481565b6000600960019054906101000a900460ff1615610e4957600080fd5b60011515600760003373ffffffffffffffffffffffffffffffffffffffff1673ffffffffffffffffffffffffffffffffffffffff16815260200190815260200160002060009054906101000a900460ff16151514610edc576040517f08c379a0000000000000000000000000000000000000000000000000000000008152600401610ed390611cde565b60405180910390fd5b60006001811115610ee957fe5b600960009054906101000a900460ff166001811115610f0457fe5b14610f0e57600080fd5b83610f248160015461138490919063ffffffff16565b341015610f66576040517f08c379a0000000000000000000000000000000000000000000000000000000008152600401610f5d90611c9e565b60405180910390fd5b84600460405180608001604052804281526020013373ffffffffffffffffffffffffffffffffffffffff16815260200188815260200187878080601f016020809104026020016040519081016040528093929190818152602001838380828437600081840152601f19601f8201169050808301925050505050505081525090806001815401808255809150506001900390600052602060002090600402016000909190919091506000820151816000015560208201518160010160006101000a81548173ffffffffffffffffffffffffffffffffffffffff021916908373ffffffffffffffffffffffffffffffffffffffff1602179055506040820151816002015560608201518160030190805190602001906110849291906114ee565b50505061109c866003546113f490919063ffffffff16565b506110ef86600860003373ffffffffffffffffffffffffffffffffffffffff1673ffffffffffffffffffffffffffffffffffffffff168152602001908152602001600020546113f490919063ffffffff16565b507f588d3f0479091e4fb3852e4826b1cb72f200f375e7e57a4cbb24343c78441de533874260405161112393929190611b6d565b60405180910390a16001925060006111586111498360015461138490919063ffffffff16565b3461144990919063ffffffff16565b90503373ffffffffffffffffffffffffffffffffffffffff166108fc829081150290604051600060405180830381858888f193505050501580156111a0573d6000803e3d6000fd5b505050509392505050565b600960019054906101000a900460ff166111c457600080fd5b600260009054906101000a900473ffffffffffffffffffffffffffffffffffffffff1673ffffffffffffffffffffffffffffffffffffffff163373ffffffffffffffffffffffffffffffffffffffff1614611254576040517f08c379a000000000000000000000000000000000000000000000000000000000815260040161124b90611c1e565b60405180910390fd5b600260009054906101000a900473ffffffffffffffffffffffffffffffffffffffff1673ffffffffffffffffffffffffffffffffffffffff16ff5b6004818154811061129c57fe5b90600052602060002090600402016000915090508060000154908060010160009054906101000a900473ffffffffffffffffffffffffffffffffffffffff1690806002015490806003018054600181600116156101000203166002900480601f01602080910402602001604051908101604052809291908181526020018280546001816001161561010002031660029004801561137a5780601f1061134f5761010080835404028352916020019161137a565b820191906000526020600020905b81548152906001019060200180831161135d57829003601f168201915b5050505050905084565b60008083141561139757600090506113ee565b60008284029050828482816113a857fe5b04146113e9576040517f08c379a00000000000000000000000000000000000000000000000000000000081526004016113e090611cbe565b60405180910390fd5b809150505b92915050565b60008082840190508381101561143f576040517f08c379a000000000000000000000000000000000000000000000000000000000815260040161143690611c5e565b60405180910390fd5b8091505092915050565b600061148b83836040518060400160405280601e81526020017f536166654d6174683a207375627472616374696f6e206f766572666c6f770000815250611493565b905092915050565b60008383111582906114db576040517f08c379a00000000000000000000000000000000000000000000000000000000081526004016114d29190611bfc565b60405180910390fd5b5060008385039050809150509392505050565b828054600181600116156101000203166002900490600052602060002090601f016020900481019282601f1061152f57805160ff191683800117855561155d565b8280016001018555821561155d579182015b8281111561155c578251825591602001919060010190611541565b5b50905061156a919061156e565b5090565b5b8082111561158757600081600090555060010161156f565b5090565b60008135905061159a81611ef1565b92915050565b60008083601f8401126115b257600080fd5b8235905067ffffffffffffffff8111156115cb57600080fd5b6020830191508360018202830111156115e357600080fd5b9250929050565b6000813590506115f981611f08565b92915050565b60006020828403121561161157600080fd5b600061161f8482850161158b565b91505092915050565b6000806040838503121561163b57600080fd5b60006116498582860161158b565b925050602061165a858286016115ea565b9150509250929050565b60006020828403121561167657600080fd5b6000611684848285016115ea565b91505092915050565b6000806000604084860312156116a257600080fd5b60006116b0868287016115ea565b935050602084013567ffffffffffffffff8111156116cd57600080fd5b6116d9868287016115a0565b92509250509250925092565b60006116f18383611ac3565b905092915050565b61170281611e58565b82525050565b61171181611deb565b82525050565b61172081611deb565b82525050565b600061173182611d95565b61173b8185611db8565b93508360208202850161174d85611d85565b8060005b85811015611789578484038952815161176a85826116e5565b945061177583611dab565b925060208a01995050600181019050611751565b50829750879550505050505092915050565b6117a481611e0f565b82525050565b6117b381611e6a565b82525050565b60006117c482611da0565b6117ce8185611dc9565b93506117de818560208601611ea0565b6117e781611ed3565b840191505092915050565b60006117fd82611da0565b6118078185611dda565b9350611817818560208601611ea0565b61182081611ed3565b840191505092915050565b6000611838601383611dda565b91507f4f6e6c79206f776e65722063616e2063616c6c000000000000000000000000006000830152602082019050919050565b6000611878602a83611dda565b91507f4e6f7420656e6f7567682062616c616e636520746f2070617920666f7220746860008301527f6520736572766963652e000000000000000000000000000000000000000000006020830152604082019050919050565b60006118de601b83611dda565b91507f536166654d6174683a206164646974696f6e206f766572666c6f7700000000006000830152602082019050919050565b600061191e602e83611dda565b91507f526571756573746564207061796d656e742065786365656473206d6178696d7560008301527f6d20736574206279206f776e65720000000000000000000000000000000000006020830152604082019050919050565b6000611984601083611dda565b91507f4e6f7420656e6f7567682076616c7565000000000000000000000000000000006000830152602082019050919050565b60006119c4602183611dda565b91507f536166654d6174683a206d756c7469706c69636174696f6e206f766572666c6f60008301527f77000000000000000000000000000000000000000000000000000000000000006020830152604082019050919050565b6000611a2a601a83611dda565b91507f4f6e6c7920636f6f776e65722063616e206c6f6720686f7572730000000000006000830152602082019050919050565b6000611a6a602783611dda565b91507f43616e206f6e6c792062652063616c6c6564206279206d656368616e6963206f60008301527f72206f776e6572000000000000000000000000000000000000000000000000006020830152604082019050919050565b6000608083016000830151611adb6000860182611b26565b506020830151611aee6020860182611708565b506040830151611b016040860182611b26565b5060608301518482036060860152611b1982826117b9565b9150508091505092915050565b611b2f81611e4e565b82525050565b611b3e81611e4e565b82525050565b6000604082019050611b5960008301856116f9565b611b666020830184611b35565b9392505050565b6000606082019050611b8260008301866116f9565b611b8f6020830185611b35565b611b9c6040830184611b35565b949350505050565b60006020820190508181036000830152611bbe8184611726565b905092915050565b6000602082019050611bdb600083018461179b565b92915050565b6000602082019050611bf660008301846117aa565b92915050565b60006020820190508181036000830152611c1681846117f2565b905092915050565b60006020820190508181036000830152611c378161182b565b9050919050565b60006020820190508181036000830152611c578161186b565b9050919050565b60006020820190508181036000830152611c77816118d1565b9050919050565b60006020820190508181036000830152611c9781611911565b9050919050565b60006020820190508181036000830152611cb781611977565b9050919050565b60006020820190508181036000830152611cd7816119b7565b9050919050565b60006020820190508181036000830152611cf781611a1d565b9050919050565b60006020820190508181036000830152611d1781611a5d565b9050919050565b6000602082019050611d336000830184611b35565b92915050565b6000608082019050611d4e6000830187611b35565b611d5b6020830186611717565b611d686040830185611b35565b8181036060830152611d7a81846117f2565b905095945050505050565b6000819050602082019050919050565b600081519050919050565b600081519050919050565b6000602082019050919050565b600082825260208201905092915050565b600082825260208201905092915050565b600082825260208201905092915050565b6000611df682611e2e565b9050919050565b6000611e0882611e2e565b9050919050565b60008115159050919050565b6000819050611e2982611ee4565b919050565b600073ffffffffffffffffffffffffffffffffffffffff82169050919050565b6000819050919050565b6000611e6382611e7c565b9050919050565b6000611e7582611e1b565b9050919050565b6000611e8782611e8e565b9050919050565b6000611e9982611e2e565b9050919050565b60005b83811015611ebe578082015181840152602081019050611ea3565b83811115611ecd576000848401525b50505050565b6000601f19601f8301169050919050565b60028110611eee57fe5b50565b611efa81611dfd565b8114611f0557600080fd5b50565b611f1181611e4e565b8114611f1c57600080fd5b5056fea2646970667358221220f4a655cb25bcb25180ca9b27ef6d3f92fdeac2e05f86eb59373faad713f1559f64736f6c634300060c0033",
  "immutableReferences": {},
  "source": "// SPDX-License-Identifier: MIT\npragma solidity >=0.6.0 <0.8.0;\npragma experimental ABIEncoderV2;\n\nimport \"@openzeppelin/contracts/math/SafeMath.sol\";\n\n/// @title Aircraft Management smart contract for aircraft logs and maintenance\n/// @author Felix Halcartegaray\n/// @notice This contract allows to manage co-owners, log and pay their flight hours and log maintenance and pay to the mechanic.\n/// @dev The contract implements basic transactions, assumes co-owners are also pilots and no flights happen outside the contract\n\ncontract AircraftManager {\n  using SafeMath for uint256;\n  /// @notice The TailNumber is the identification of the aircraft, a unique identifier worldwide (in the US also known as N-number)\n  string public tailNumber;\n  uint pricePerHour;\n  address payable owner;\n  /// @notice Total flight hours of this aircraft\n  uint public flightHours;\n  /// @notice All detailed flight activity for this aircraft\n  FlightLog[] public log;\n  // Store the current mechanic and maximum payment\n  address payable mechanic;\n  uint maxPayment;\n  // Keep track of active co-Owners that can fly and flight hours per pilot\n  mapping (address => bool) coOwner;\n  mapping (address => uint) flightHoursPerPilot;\n  /// @notice Indicates if the aircraft is ready to fly or in maintenance.\n  /// @dev Currently has two status, but should have more (for example AOG, aircraft on ground)\n  Status public aircraftStatus;\n  /// @notice Used in case of needing to stop the contract\n  /// @dev Used to implement the circuit breaker pattern\n  bool public breaker = false;\n\n  enum Status {Active, Maintenance}\n\n  struct FlightLog {\n    uint date;\n    address pilot;\n    uint flightHours;\n    string comment;\n  }\n  event LogFlightHour(address pilot, uint flightHours, uint date);\n  event LogMaintenance(address mechanic, uint date);\n\n\n  modifier onlyOwner() { require (msg.sender == owner, \"Only owner can call\"); _;}\n  modifier onlyCoOwner() { require (coOwner[msg.sender] == true, \"Only coowner can log hours\"); _;}\n  modifier enoughPay(uint _flightHours) { require (msg.value >= (pricePerHour.mul(_flightHours)), \"Not enough value\"); _;}\n  modifier refundExtraPayment(uint _flightHours) {\n    _;    \n    uint refundAmount = msg.value.sub(pricePerHour.mul(_flightHours));\n    msg.sender.transfer(refundAmount);\n  }\n  modifier aircraftActive() {require(aircraftStatus == Status.Active); _;}\n  modifier aircraftInMaintenance() {require(aircraftStatus == Status.Maintenance); _;}\n  modifier stopEmergency() {require(!breaker); _;}\n  modifier onlyEmergency() {require(breaker); _;}\n\n  /// @notice Creates a new aircraft\n  /// @param _tailNumber Stores the identification of the aircraft\n  /// @param _initialHours Sets the initial number of hours for the aircraft (current number of hours)\n  /// @param _pricePerHour Sets the price per hour to pay for each hour flown by pilots\n  constructor(string memory _tailNumber, uint _initialHours, uint _pricePerHour) public {\n    owner = msg.sender;\n    tailNumber = _tailNumber;\n    flightHours = _initialHours;\n    pricePerHour = _pricePerHour;\n  }\n\n  /// @notice Adds a co-owner to the aircraft\n  /// @param _coowner Indicate the address of the co-owner to add\n  function addCoOwner(address payable _coowner) \n    external\n    onlyOwner\n    stopEmergency\n  {\n      coOwner[_coowner] = true;\n  }\n\n  /// @notice Removes a co-owner from the aircraft\n  /// @param _coowner Indicate the address of the co-owner to remove\n  function removeCoOwner(address payable _coowner) \n    external\n    onlyOwner\n    stopEmergency\n  {\n      coOwner[_coowner] = false;\n  }\n\n  /// @notice Updates the price per hour\n  /// @param _newprice Indicates the new price per hour\n  function updatePrice(uint _newprice) \n    external\n    onlyOwner\n  {\n      pricePerHour = _newprice;\n  }\n\n  /// @notice Gets the balance of the aircraft\n  /// @return Balance available for aircraft\n  function getBalance() public view onlyCoOwner returns(uint) {\n    return address(this).balance;\n  }\n\n  /// @notice Logs a new flight, using the sender as pilot, date as now. Can only be logged if aircraft is active.\n  /// @param _flighthours Indicates the number of flight hours to log\n  /// @param _comment Logs any comments on this flight\n  /// @return True if the log was correctly recorded\n    function logFlightHours(uint _flighthours, string calldata _comment) \n    public \n    payable\n    stopEmergency \n    onlyCoOwner\n    aircraftActive \n    enoughPay(_flighthours)\n    refundExtraPayment(_flighthours)\n    returns(bool)\n    {\n    log.push(FlightLog({date: now, pilot: msg.sender, flightHours: _flighthours, comment: _comment}));\n    flightHours.add(_flighthours);\n    flightHoursPerPilot[msg.sender].add(_flighthours);\n    emit LogFlightHour(msg.sender, _flighthours, now);\n\n    return true;\n  }\n\n  /// @notice Send the aircraft to the mechanic\n  /// @param _mechanic Indicates the address of the mechanic that will serve the aircraft\n  /// @param _maxPay Indicates maximum amount to pay for this service\n  /// @return True if the change of state was correctly recorded\n  function sendToMechanic(address payable _mechanic, uint _maxPay)\n      external\n      stopEmergency\n      aircraftActive\n      onlyOwner\n      returns (bool)\n    {\n      emit LogMaintenance(_mechanic, now);\n      mechanic = _mechanic;\n      maxPayment = _maxPay;\n      aircraftStatus = Status.Maintenance;\n      return true;\n    }\n\n  /// @notice Update maximum payment for the mechanic\n  /// @param _maxPay Indicates maximum amount to pay for this service\n  function setMaxPayment(uint _maxPay)\n      external\n      onlyOwner\n    {\n      maxPayment = _maxPay;\n    }\n  \n  /// @notice Receive the aircraft from the mechanic and pay for the service if it is below the allowed maximum\n  /// @param _amount Indicates  amount to pay for this service\n  /// @return True if the change of state was correctly recorded\n  function ReceiveFromMechanic(uint _amount) external payable stopEmergency returns(bool) {\n    // We allow owner to also receive from mechanic to avoid lock. First option is mechanic as it is the most likely (short circuit)\n    require(_amount <= maxPayment, \"Requested payment exceeds maximum set by owner\");\n    require(address(this).balance >= _amount, \"Not enough balance to pay for the service.\");\n    require(msg.sender == mechanic || msg.sender == owner, \"Can only be called by mechanic or owner\");\n    aircraftStatus = Status.Active;\n    mechanic.transfer(_amount);\n    return(true);\n  }\n\n  /// @notice Get the complete flight log\n  /// @return Complete flight log of this aircraft\n  function getFlightLog() public view returns(FlightLog[] memory) {\n    return log;\n  }\n\n  /// @notice Toggle Breaker to set or stop emergency. Only owner can set it.\n  /// @dev Toggles breaker for circuit breaker pattern\n  function toggleEmergency() \n  public\n  onlyOwner\n  {\n    breaker = !breaker;\n  }\n\n  /// @notice Destroy aircraft and return funds to owner\n  function deleteAircraft() \n  public\n  onlyEmergency\n  onlyOwner\n  {\n    selfdestruct(owner);\n  }\n\n  /// @notice Allow to add funds if there is not enough\n  receive() external payable { \n    // We just add the funds to the aircraft balance\n  }\n\n}\n",
  "sourcePath": "/home/felix/Projects/AircraftManager/contracts/AircraftManager.sol",
  "compiler": {
    "name": "solc",
    "version": "0.6.12+commit.27d51765.Emscripten.clang"
  },
  "schemaVersion": "3.3.3",
  "updatedAt": "2020-12-20T22:54:02.835Z",
  "devdoc": {
    "author": "Felix Halcartegaray",
    "details": "The contract implements basic transactions, assumes co-owners are also pilots and no flights happen outside the contract",
    "kind": "dev",
    "methods": {
      "ReceiveFromMechanic(uint256)": {
        "params": {
          "_amount": "Indicates  amount to pay for this service"
        },
        "returns": {
          "_0": "True if the change of state was correctly recorded"
        }
      },
      "addCoOwner(address)": {
        "params": {
          "_coowner": "Indicate the address of the co-owner to add"
        }
      },
      "constructor": {
        "params": {
          "_initialHours": "Sets the initial number of hours for the aircraft (current number of hours)",
          "_pricePerHour": "Sets the price per hour to pay for each hour flown by pilots",
          "_tailNumber": "Stores the identification of the aircraft"
        }
      },
      "getBalance()": {
        "returns": {
          "_0": "Balance available for aircraft"
        }
      },
      "getFlightLog()": {
        "returns": {
          "_0": "Complete flight log of this aircraft"
        }
      },
      "logFlightHours(uint256,string)": {
        "params": {
          "_comment": "Logs any comments on this flight",
          "_flighthours": "Indicates the number of flight hours to log"
        },
        "returns": {
          "_0": "True if the log was correctly recorded"
        }
      },
      "removeCoOwner(address)": {
        "params": {
          "_coowner": "Indicate the address of the co-owner to remove"
        }
      },
      "sendToMechanic(address,uint256)": {
        "params": {
          "_maxPay": "Indicates maximum amount to pay for this service",
          "_mechanic": "Indicates the address of the mechanic that will serve the aircraft"
        },
        "returns": {
          "_0": "True if the change of state was correctly recorded"
        }
      },
      "setMaxPayment(uint256)": {
        "params": {
          "_maxPay": "Indicates maximum amount to pay for this service"
        }
      },
      "toggleEmergency()": {
        "details": "Toggles breaker for circuit breaker pattern"
      },
      "updatePrice(uint256)": {
        "params": {
          "_newprice": "Indicates the new price per hour"
        }
      }
    },
    "stateVariables": {
      "aircraftStatus": {
        "details": "Currently has two status, but should have more (for example AOG, aircraft on ground)"
      },
      "breaker": {
        "details": "Used to implement the circuit breaker pattern"
      }
    },
    "title": "Aircraft Management smart contract for aircraft logs and maintenance",
    "version": 1
  },
  "userdoc": {
    "kind": "user",
    "methods": {
      "ReceiveFromMechanic(uint256)": {
        "notice": "Receive the aircraft from the mechanic and pay for the service if it is below the allowed maximum"
      },
      "addCoOwner(address)": {
        "notice": "Adds a co-owner to the aircraft"
      },
      "aircraftStatus()": {
        "notice": "Indicates if the aircraft is ready to fly or in maintenance."
      },
      "breaker()": {
        "notice": "Used in case of needing to stop the contract"
      },
      "constructor": "Creates a new aircraft",
      "deleteAircraft()": {
        "notice": "Destroy aircraft and return funds to owner"
      },
      "flightHours()": {
        "notice": "Total flight hours of this aircraft"
      },
      "getBalance()": {
        "notice": "Gets the balance of the aircraft"
      },
      "getFlightLog()": {
        "notice": "Get the complete flight log"
      },
      "log(uint256)": {
        "notice": "All detailed flight activity for this aircraft"
      },
      "logFlightHours(uint256,string)": {
        "notice": "Logs a new flight, using the sender as pilot, date as now. Can only be logged if aircraft is active."
      },
      "removeCoOwner(address)": {
        "notice": "Removes a co-owner from the aircraft"
      },
      "sendToMechanic(address,uint256)": {
        "notice": "Send the aircraft to the mechanic"
      },
      "setMaxPayment(uint256)": {
        "notice": "Update maximum payment for the mechanic"
      },
      "tailNumber()": {
        "notice": "The TailNumber is the identification of the aircraft, a unique identifier worldwide (in the US also known as N-number)"
      },
      "toggleEmergency()": {
        "notice": "Toggle Breaker to set or stop emergency. Only owner can set it."
      },
      "updatePrice(uint256)": {
        "notice": "Updates the price per hour"
      }
    },
    "notice": "This contract allows to manage co-owners, log and pay their flight hours and log maintenance and pay to the mechanic.",
    "version": 1
  }
}