{
  "contractName": "AircraftManager",
  "abi": [
    {
      "inputs": [
        {
          "internalType": "string",
          "name": "_tailNumber",
          "type": "string"
        },
        {
          "internalType": "uint256",
          "name": "_initialHours",
          "type": "uint256"
        },
        {
          "internalType": "uint256",
          "name": "_pricePerHour",
          "type": "uint256"
        }
      ],
      "stateMutability": "nonpayable",
      "type": "constructor"
    },
    {
      "anonymous": false,
      "inputs": [
        {
          "indexed": false,
          "internalType": "address",
          "name": "pilot",
          "type": "address"
        },
        {
          "indexed": false,
          "internalType": "uint256",
          "name": "flightHours",
          "type": "uint256"
        },
        {
          "indexed": false,
          "internalType": "uint256",
          "name": "date",
          "type": "uint256"
        }
      ],
      "name": "LogFlightHour",
      "type": "event"
    },
    {
      "anonymous": false,
      "inputs": [
        {
          "indexed": false,
          "internalType": "address",
          "name": "mechanic",
          "type": "address"
        },
        {
          "indexed": false,
          "internalType": "uint256",
          "name": "date",
          "type": "uint256"
        }
      ],
      "name": "LogMaintenance",
      "type": "event"
    },
    {
      "inputs": [],
      "name": "aircraftStatus",
      "outputs": [
        {
          "internalType": "enum AircraftManager.Status",
          "name": "",
          "type": "uint8"
        }
      ],
      "stateMutability": "view",
      "type": "function",
      "constant": true
    },
    {
      "inputs": [],
      "name": "breaker",
      "outputs": [
        {
          "internalType": "bool",
          "name": "",
          "type": "bool"
        }
      ],
      "stateMutability": "view",
      "type": "function",
      "constant": true
    },
    {
      "inputs": [],
      "name": "flightHours",
      "outputs": [
        {
          "internalType": "uint256",
          "name": "",
          "type": "uint256"
        }
      ],
      "stateMutability": "view",
      "type": "function",
      "constant": true
    },
    {
      "inputs": [
        {
          "internalType": "uint256",
          "name": "",
          "type": "uint256"
        }
      ],
      "name": "log",
      "outputs": [
        {
          "internalType": "uint256",
          "name": "date",
          "type": "uint256"
        },
        {
          "internalType": "address",
          "name": "pilot",
          "type": "address"
        },
        {
          "internalType": "uint256",
          "name": "flightHours",
          "type": "uint256"
        },
        {
          "internalType": "string",
          "name": "comment",
          "type": "string"
        }
      ],
      "stateMutability": "view",
      "type": "function",
      "constant": true
    },
    {
      "inputs": [],
      "name": "pricePerHour",
      "outputs": [
        {
          "internalType": "uint256",
          "name": "",
          "type": "uint256"
        }
      ],
      "stateMutability": "view",
      "type": "function",
      "constant": true
    },
    {
      "inputs": [],
      "name": "tailNumber",
      "outputs": [
        {
          "internalType": "string",
          "name": "",
          "type": "string"
        }
      ],
      "stateMutability": "view",
      "type": "function",
      "constant": true
    },
    {
      "stateMutability": "payable",
      "type": "receive",
      "payable": true
    },
    {
      "inputs": [
        {
          "internalType": "address payable",
          "name": "_coowner",
          "type": "address"
        }
      ],
      "name": "addCoOwner",
      "outputs": [],
      "stateMutability": "nonpayable",
      "type": "function"
    },
    {
      "inputs": [
        {
          "internalType": "address payable",
          "name": "_coowner",
          "type": "address"
        }
      ],
      "name": "removeCoOwner",
      "outputs": [],
      "stateMutability": "nonpayable",
      "type": "function"
    },
    {
      "inputs": [
        {
          "internalType": "uint256",
          "name": "_newprice",
          "type": "uint256"
        }
      ],
      "name": "updatePrice",
      "outputs": [],
      "stateMutability": "nonpayable",
      "type": "function"
    },
    {
      "inputs": [],
      "name": "getBalance",
      "outputs": [
        {
          "internalType": "uint256",
          "name": "",
          "type": "uint256"
        }
      ],
      "stateMutability": "view",
      "type": "function",
      "constant": true
    },
    {
      "inputs": [
        {
          "internalType": "uint256",
          "name": "_flighthours",
          "type": "uint256"
        },
        {
          "internalType": "string",
          "name": "_comment",
          "type": "string"
        }
      ],
      "name": "logFlightHours",
      "outputs": [
        {
          "internalType": "bool",
          "name": "",
          "type": "bool"
        }
      ],
      "stateMutability": "payable",
      "type": "function",
      "payable": true
    },
    {
      "inputs": [
        {
          "internalType": "address payable",
          "name": "_mechanic",
          "type": "address"
        },
        {
          "internalType": "uint256",
          "name": "_maxPay",
          "type": "uint256"
        }
      ],
      "name": "sendToMechanic",
      "outputs": [
        {
          "internalType": "bool",
          "name": "",
          "type": "bool"
        }
      ],
      "stateMutability": "nonpayable",
      "type": "function"
    },
    {
      "inputs": [
        {
          "internalType": "uint256",
          "name": "_maxPay",
          "type": "uint256"
        }
      ],
      "name": "setMaxPayment",
      "outputs": [],
      "stateMutability": "nonpayable",
      "type": "function"
    },
    {
      "inputs": [
        {
          "internalType": "uint256",
          "name": "_amount",
          "type": "uint256"
        }
      ],
      "name": "ReceiveFromMechanic",
      "outputs": [
        {
          "internalType": "bool",
          "name": "",
          "type": "bool"
        }
      ],
      "stateMutability": "payable",
      "type": "function",
      "payable": true
    },
    {
      "inputs": [],
      "name": "getFlightLog",
      "outputs": [
        {
          "components": [
            {
              "internalType": "uint256",
              "name": "date",
              "type": "uint256"
            },
            {
              "internalType": "address",
              "name": "pilot",
              "type": "address"
            },
            {
              "internalType": "uint256",
              "name": "flightHours",
              "type": "uint256"
            },
            {
              "internalType": "string",
              "name": "comment",
              "type": "string"
            }
          ],
          "internalType": "struct AircraftManager.FlightLog[]",
          "name": "",
          "type": "tuple[]"
        }
      ],
      "stateMutability": "view",
      "type": "function",
      "constant": true
    },
    {
      "inputs": [],
      "name": "toggleEmergency",
      "outputs": [],
      "stateMutability": "nonpayable",
      "type": "function"
    },
    {
      "inputs": [],
      "name": "deleteAircraft",
      "outputs": [],
      "stateMutability": "nonpayable",
      "type": "function"
    }
  ],
  "bytecode": "0x60806040526000600960016101000a81548160ff0219169083151502179055503480156200002c57600080fd5b506040516200234038038062002340833981810160405281019062000052919062000234565b33600260006101000a81548173ffffffffffffffffffffffffffffffffffffffff021916908373ffffffffffffffffffffffffffffffffffffffff1602179055506001600760003373ffffffffffffffffffffffffffffffffffffffff1673ffffffffffffffffffffffffffffffffffffffff16815260200190815260200160002060006101000a81548160ff0219169083151502179055508260009080519060200190620001039291906200011b565b50816003819055508060018190555050505062000358565b828054600181600116156101000203166002900490600052602060002090601f016020900481019282601f106200015e57805160ff19168380011785556200018f565b828001600101855582156200018f579182015b828111156200018e57825182559160200191906001019062000171565b5b5090506200019e9190620001a2565b5090565b5b80821115620001bd576000816000905550600101620001a3565b5090565b600082601f830112620001d357600080fd5b8151620001ea620001e482620002d1565b620002a3565b915080825260208301602083018583830111156200020757600080fd5b6200021483828462000308565b50505092915050565b6000815190506200022e816200033e565b92915050565b6000806000606084860312156200024a57600080fd5b600084015167ffffffffffffffff8111156200026557600080fd5b6200027386828701620001c1565b935050602062000286868287016200021d565b925050604062000299868287016200021d565b9150509250925092565b6000604051905081810181811067ffffffffffffffff82111715620002c757600080fd5b8060405250919050565b600067ffffffffffffffff821115620002e957600080fd5b601f19601f8301169050602081019050919050565b6000819050919050565b60005b83811015620003285780820151818401526020810190506200030b565b8381111562000338576000848401525b50505050565b6200034981620002fe565b81146200035557600080fd5b50565b611fd880620003686000396000f3fe6080604052600436106101025760003560e01c80639488368611610095578063ceb751da11610064578063ceb751da1461030d578063df4505b814610338578063e838cbdd14610363578063f7a60ea614610393578063f82c50f1146103aa57610109565b8063948836861461024f578063a43d7b7f1461027a578063ba4507a6146102b7578063cb38f82b146102e257610109565b8063339b174a116100d1578063339b174a146101ab578063563a4024146101d457806369b2ac8e146101fd5780638d6cc56d1461022657610109565b80630f41e0d21461010e57806312065fe0146101395780631a0ed203146101645780632d1d27441461019457610109565b3661010957005b600080fd5b34801561011a57600080fd5b506101236103ea565b6040516101309190611c49565b60405180910390f35b34801561014557600080fd5b5061014e6103fd565b60405161015b9190611da1565b60405180910390f35b61017e600480360381019061017991906116e7565b610498565b60405161018b9190611c49565b60405180910390f35b3480156101a057600080fd5b506101a96106ba565b005b3480156101b757600080fd5b506101d260048036038101906101cd91906116e7565b610776565b005b3480156101e057600080fd5b506101fb60048036038101906101f69190611682565b610810565b005b34801561020957600080fd5b50610224600480360381019061021f9190611682565b610915565b005b34801561023257600080fd5b5061024d600480360381019061024891906116e7565b610a1a565b005b34801561025b57600080fd5b50610264610ab4565b6040516102719190611c27565b60405180910390f35b34801561028657600080fd5b506102a1600480360381019061029c91906116ab565b610c1f565b6040516102ae9190611c49565b60405180910390f35b3480156102c357600080fd5b506102cc610dac565b6040516102d99190611c7f565b60405180910390f35b3480156102ee57600080fd5b506102f7610e4a565b6040516103049190611c64565b60405180910390f35b34801561031957600080fd5b50610322610e5d565b60405161032f9190611da1565b60405180910390f35b34801561034457600080fd5b5061034d610e63565b60405161035a9190611da1565b60405180910390f35b61037d60048036038101906103789190611710565b610e69565b60405161038a9190611c49565b60405180910390f35b34801561039f57600080fd5b506103a861122e565b005b3480156103b657600080fd5b506103d160048036038101906103cc91906116e7565b611312565b6040516103e19493929190611dbc565b60405180910390f35b600960019054906101000a900460ff1681565b600060011515600760003373ffffffffffffffffffffffffffffffffffffffff1673ffffffffffffffffffffffffffffffffffffffff16815260200190815260200160002060009054906101000a900460ff16151514610492576040517f08c379a000000000000000000000000000000000000000000000000000000000815260040161048990611d61565b60405180910390fd5b47905090565b6000600960019054906101000a900460ff16156104b457600080fd5b6006548211156104f9576040517f08c379a00000000000000000000000000000000000000000000000000000000081526004016104f090611d01565b60405180910390fd5b8147101561053c576040517f08c379a000000000000000000000000000000000000000000000000000000000815260040161053390611cc1565b60405180910390fd5b600560009054906101000a900473ffffffffffffffffffffffffffffffffffffffff1673ffffffffffffffffffffffffffffffffffffffff163373ffffffffffffffffffffffffffffffffffffffff1614806105e55750600260009054906101000a900473ffffffffffffffffffffffffffffffffffffffff1673ffffffffffffffffffffffffffffffffffffffff163373ffffffffffffffffffffffffffffffffffffffff16145b610624576040517f08c379a000000000000000000000000000000000000000000000000000000000815260040161061b90611d81565b60405180910390fd5b6000600960006101000a81548160ff0219169083600181111561064357fe5b0217905550600560009054906101000a900473ffffffffffffffffffffffffffffffffffffffff1673ffffffffffffffffffffffffffffffffffffffff166108fc839081150290604051600060405180830381858888f193505050501580156106b0573d6000803e3d6000fd5b5060019050919050565b600260009054906101000a900473ffffffffffffffffffffffffffffffffffffffff1673ffffffffffffffffffffffffffffffffffffffff163373ffffffffffffffffffffffffffffffffffffffff161461074a576040517f08c379a000000000000000000000000000000000000000000000000000000000815260040161074190611ca1565b60405180910390fd5b600960019054906101000a900460ff1615600960016101000a81548160ff021916908315150217905550565b600260009054906101000a900473ffffffffffffffffffffffffffffffffffffffff1673ffffffffffffffffffffffffffffffffffffffff163373ffffffffffffffffffffffffffffffffffffffff1614610806576040517f08c379a00000000000000000000000000000000000000000000000000000000081526004016107fd90611ca1565b60405180910390fd5b8060068190555050565b600260009054906101000a900473ffffffffffffffffffffffffffffffffffffffff1673ffffffffffffffffffffffffffffffffffffffff163373ffffffffffffffffffffffffffffffffffffffff16146108a0576040517f08c379a000000000000000000000000000000000000000000000000000000000815260040161089790611ca1565b60405180910390fd5b600960019054906101000a900460ff16156108ba57600080fd5b6001600760008373ffffffffffffffffffffffffffffffffffffffff1673ffffffffffffffffffffffffffffffffffffffff16815260200190815260200160002060006101000a81548160ff02191690831515021790555050565b600260009054906101000a900473ffffffffffffffffffffffffffffffffffffffff1673ffffffffffffffffffffffffffffffffffffffff163373ffffffffffffffffffffffffffffffffffffffff16146109a5576040517f08c379a000000000000000000000000000000000000000000000000000000000815260040161099c90611ca1565b60405180910390fd5b600960019054906101000a900460ff16156109bf57600080fd5b6000600760008373ffffffffffffffffffffffffffffffffffffffff1673ffffffffffffffffffffffffffffffffffffffff16815260200190815260200160002060006101000a81548160ff02191690831515021790555050565b600260009054906101000a900473ffffffffffffffffffffffffffffffffffffffff1673ffffffffffffffffffffffffffffffffffffffff163373ffffffffffffffffffffffffffffffffffffffff1614610aaa576040517f08c379a0000000000000000000000000000000000000000000000000000000008152600401610aa190611ca1565b60405180910390fd5b8060018190555050565b60606004805480602002602001604051908101604052809291908181526020016000905b82821015610c165783829060005260206000209060040201604051806080016040529081600082015481526020016001820160009054906101000a900473ffffffffffffffffffffffffffffffffffffffff1673ffffffffffffffffffffffffffffffffffffffff1673ffffffffffffffffffffffffffffffffffffffff16815260200160028201548152602001600382018054600181600116156101000203166002900480601f016020809104026020016040519081016040528092919081815260200182805460018160011615610100020316600290048015610bfe5780601f10610bd357610100808354040283529160200191610bfe565b820191906000526020600020905b815481529060010190602001808311610be157829003601f168201915b50505050508152505081526020019060010190610ad8565b50505050905090565b6000600960019054906101000a900460ff1615610c3b57600080fd5b60006001811115610c4857fe5b600960009054906101000a900460ff166001811115610c6357fe5b14610c6d57600080fd5b600260009054906101000a900473ffffffffffffffffffffffffffffffffffffffff1673ffffffffffffffffffffffffffffffffffffffff163373ffffffffffffffffffffffffffffffffffffffff1614610cfd576040517f08c379a0000000000000000000000000000000000000000000000000000000008152600401610cf490611ca1565b60405180910390fd5b7f89015af9fb0fbfa1f6c7c396b5f1538e1db65958423f840a90365f882857bd448342604051610d2e929190611bc7565b60405180910390a182600560006101000a81548173ffffffffffffffffffffffffffffffffffffffff021916908373ffffffffffffffffffffffffffffffffffffffff160217905550816006819055506001600960006101000a81548160ff02191690836001811115610d9d57fe5b02179055506001905092915050565b60008054600181600116156101000203166002900480601f016020809104026020016040519081016040528092919081815260200182805460018160011615610100020316600290048015610e425780601f10610e1757610100808354040283529160200191610e42565b820191906000526020600020905b815481529060010190602001808311610e2557829003601f168201915b505050505081565b600960009054906101000a900460ff1681565b60015481565b60035481565b6000600960019054906101000a900460ff1615610e8557600080fd5b60011515600760003373ffffffffffffffffffffffffffffffffffffffff1673ffffffffffffffffffffffffffffffffffffffff16815260200190815260200160002060009054906101000a900460ff16151514610f18576040517f08c379a0000000000000000000000000000000000000000000000000000000008152600401610f0f90611d61565b60405180910390fd5b60006001811115610f2557fe5b600960009054906101000a900460ff166001811115610f4057fe5b14610f4a57600080fd5b83610f608160015461140790919063ffffffff16565b341015610fa2576040517f08c379a0000000000000000000000000000000000000000000000000000000008152600401610f9990611d21565b60405180910390fd5b84600460405180608001604052804281526020013373ffffffffffffffffffffffffffffffffffffffff16815260200188815260200187878080601f016020809104026020016040519081016040528093929190818152602001838380828437600081840152601f19601f8201169050808301925050505050505081525090806001815401808255809150506001900390600052602060002090600402016000909190919091506000820151816000015560208201518160010160006101000a81548173ffffffffffffffffffffffffffffffffffffffff021916908373ffffffffffffffffffffffffffffffffffffffff1602179055506040820151816002015560608201518160030190805190602001906110c0929190611571565b5050506110d88660035461147790919063ffffffff16565b60038190555061113086600860003373ffffffffffffffffffffffffffffffffffffffff1673ffffffffffffffffffffffffffffffffffffffff1681526020019081526020016000205461147790919063ffffffff16565b600860003373ffffffffffffffffffffffffffffffffffffffff1673ffffffffffffffffffffffffffffffffffffffff168152602001908152602001600020819055507f588d3f0479091e4fb3852e4826b1cb72f200f375e7e57a4cbb24343c78441de53387426040516111a693929190611bf0565b60405180910390a16001925060006111db6111cc8360015461140790919063ffffffff16565b346114cc90919063ffffffff16565b90503373ffffffffffffffffffffffffffffffffffffffff166108fc829081150290604051600060405180830381858888f19350505050158015611223573d6000803e3d6000fd5b505050509392505050565b600960019054906101000a900460ff1661124757600080fd5b600260009054906101000a900473ffffffffffffffffffffffffffffffffffffffff1673ffffffffffffffffffffffffffffffffffffffff163373ffffffffffffffffffffffffffffffffffffffff16146112d7576040517f08c379a00000000000000000000000000000000000000000000000000000000081526004016112ce90611ca1565b60405180910390fd5b600260009054906101000a900473ffffffffffffffffffffffffffffffffffffffff1673ffffffffffffffffffffffffffffffffffffffff16ff5b6004818154811061131f57fe5b90600052602060002090600402016000915090508060000154908060010160009054906101000a900473ffffffffffffffffffffffffffffffffffffffff1690806002015490806003018054600181600116156101000203166002900480601f0160208091040260200160405190810160405280929190818152602001828054600181600116156101000203166002900480156113fd5780601f106113d2576101008083540402835291602001916113fd565b820191906000526020600020905b8154815290600101906020018083116113e057829003601f168201915b5050505050905084565b60008083141561141a5760009050611471565b600082840290508284828161142b57fe5b041461146c576040517f08c379a000000000000000000000000000000000000000000000000000000000815260040161146390611d41565b60405180910390fd5b809150505b92915050565b6000808284019050838110156114c2576040517f08c379a00000000000000000000000000000000000000000000000000000000081526004016114b990611ce1565b60405180910390fd5b8091505092915050565b600061150e83836040518060400160405280601e81526020017f536166654d6174683a207375627472616374696f6e206f766572666c6f770000815250611516565b905092915050565b600083831115829061155e576040517f08c379a00000000000000000000000000000000000000000000000000000000081526004016115559190611c7f565b60405180910390fd5b5060008385039050809150509392505050565b828054600181600116156101000203166002900490600052602060002090601f016020900481019282601f106115b257805160ff19168380011785556115e0565b828001600101855582156115e0579182015b828111156115df5782518255916020019190600101906115c4565b5b5090506115ed91906115f1565b5090565b5b8082111561160a5760008160009055506001016115f2565b5090565b60008135905061161d81611f74565b92915050565b60008083601f84011261163557600080fd5b8235905067ffffffffffffffff81111561164e57600080fd5b60208301915083600182028301111561166657600080fd5b9250929050565b60008135905061167c81611f8b565b92915050565b60006020828403121561169457600080fd5b60006116a28482850161160e565b91505092915050565b600080604083850312156116be57600080fd5b60006116cc8582860161160e565b92505060206116dd8582860161166d565b9150509250929050565b6000602082840312156116f957600080fd5b60006117078482850161166d565b91505092915050565b60008060006040848603121561172557600080fd5b60006117338682870161166d565b935050602084013567ffffffffffffffff81111561175057600080fd5b61175c86828701611623565b92509250509250925092565b60006117748383611b46565b905092915050565b61178581611edb565b82525050565b61179481611e6e565b82525050565b6117a381611e6e565b82525050565b60006117b482611e18565b6117be8185611e3b565b9350836020820285016117d085611e08565b8060005b8581101561180c57848403895281516117ed8582611768565b94506117f883611e2e565b925060208a019950506001810190506117d4565b50829750879550505050505092915050565b61182781611e92565b82525050565b61183681611eed565b82525050565b600061184782611e23565b6118518185611e4c565b9350611861818560208601611f23565b61186a81611f56565b840191505092915050565b600061188082611e23565b61188a8185611e5d565b935061189a818560208601611f23565b6118a381611f56565b840191505092915050565b60006118bb601383611e5d565b91507f4f6e6c79206f776e65722063616e2063616c6c000000000000000000000000006000830152602082019050919050565b60006118fb602a83611e5d565b91507f4e6f7420656e6f7567682062616c616e636520746f2070617920666f7220746860008301527f6520736572766963652e000000000000000000000000000000000000000000006020830152604082019050919050565b6000611961601b83611e5d565b91507f536166654d6174683a206164646974696f6e206f766572666c6f7700000000006000830152602082019050919050565b60006119a1602e83611e5d565b91507f526571756573746564207061796d656e742065786365656473206d6178696d7560008301527f6d20736574206279206f776e65720000000000000000000000000000000000006020830152604082019050919050565b6000611a07601083611e5d565b91507f4e6f7420656e6f7567682076616c7565000000000000000000000000000000006000830152602082019050919050565b6000611a47602183611e5d565b91507f536166654d6174683a206d756c7469706c69636174696f6e206f766572666c6f60008301527f77000000000000000000000000000000000000000000000000000000000000006020830152604082019050919050565b6000611aad601a83611e5d565b91507f4f6e6c7920636f6f776e65722063616e206c6f6720686f7572730000000000006000830152602082019050919050565b6000611aed602783611e5d565b91507f43616e206f6e6c792062652063616c6c6564206279206d656368616e6963206f60008301527f72206f776e6572000000000000000000000000000000000000000000000000006020830152604082019050919050565b6000608083016000830151611b5e6000860182611ba9565b506020830151611b71602086018261178b565b506040830151611b846040860182611ba9565b5060608301518482036060860152611b9c828261183c565b9150508091505092915050565b611bb281611ed1565b82525050565b611bc181611ed1565b82525050565b6000604082019050611bdc600083018561177c565b611be96020830184611bb8565b9392505050565b6000606082019050611c05600083018661177c565b611c126020830185611bb8565b611c1f6040830184611bb8565b949350505050565b60006020820190508181036000830152611c4181846117a9565b905092915050565b6000602082019050611c5e600083018461181e565b92915050565b6000602082019050611c79600083018461182d565b92915050565b60006020820190508181036000830152611c998184611875565b905092915050565b60006020820190508181036000830152611cba816118ae565b9050919050565b60006020820190508181036000830152611cda816118ee565b9050919050565b60006020820190508181036000830152611cfa81611954565b9050919050565b60006020820190508181036000830152611d1a81611994565b9050919050565b60006020820190508181036000830152611d3a816119fa565b9050919050565b60006020820190508181036000830152611d5a81611a3a565b9050919050565b60006020820190508181036000830152611d7a81611aa0565b9050919050565b60006020820190508181036000830152611d9a81611ae0565b9050919050565b6000602082019050611db66000830184611bb8565b92915050565b6000608082019050611dd16000830187611bb8565b611dde602083018661179a565b611deb6040830185611bb8565b8181036060830152611dfd8184611875565b905095945050505050565b6000819050602082019050919050565b600081519050919050565b600081519050919050565b6000602082019050919050565b600082825260208201905092915050565b600082825260208201905092915050565b600082825260208201905092915050565b6000611e7982611eb1565b9050919050565b6000611e8b82611eb1565b9050919050565b60008115159050919050565b6000819050611eac82611f67565b919050565b600073ffffffffffffffffffffffffffffffffffffffff82169050919050565b6000819050919050565b6000611ee682611eff565b9050919050565b6000611ef882611e9e565b9050919050565b6000611f0a82611f11565b9050919050565b6000611f1c82611eb1565b9050919050565b60005b83811015611f41578082015181840152602081019050611f26565b83811115611f50576000848401525b50505050565b6000601f19601f8301169050919050565b60028110611f7157fe5b50565b611f7d81611e80565b8114611f8857600080fd5b50565b611f9481611ed1565b8114611f9f57600080fd5b5056fea26469706673582212204d616109c123ec1ba83d3a1e531a9974023dbd2dad2b1d4fc7732d127dc8e48464736f6c634300060c0033",
  "immutableReferences": {},
  "source": "// SPDX-License-Identifier: MIT\npragma solidity >=0.6.0 <0.8.0;\npragma experimental ABIEncoderV2;\n\nimport \"@openzeppelin/contracts/math/SafeMath.sol\";\n\n/// @title Aircraft Management smart contract for aircraft logs and maintenance\n/// @author Felix Halcartegaray\n/// @notice This contract allows to manage co-owners, log and pay their flight hours and log maintenance and pay to the mechanic.\n/// @dev The contract implements basic transactions, assumes co-owners are also pilots and no flights happen outside the contract\n\ncontract AircraftManager {\n  using SafeMath for uint256;\n  /// @notice The TailNumber is the identification of the aircraft, a unique identifier worldwide (in the US also known as N-number)\n  string public tailNumber;\n  /// @notice Price to pay per hour of flight\n  uint public pricePerHour;\n  address payable owner;\n  /// @notice Total flight hours of this aircraft\n  uint public flightHours;\n  /// @notice All detailed flight activity for this aircraft\n  FlightLog[] public log;\n  // Store the current mechanic and maximum payment\n  address payable mechanic;\n  uint maxPayment;\n  // Keep track of active co-Owners that can fly and flight hours per pilot\n  mapping (address => bool) coOwner;\n  mapping (address => uint) flightHoursPerPilot;\n  /// @notice Indicates if the aircraft is ready to fly or in maintenance.\n  /// @dev Currently has two status, but should have more (for example AOG, aircraft on ground)\n  Status public aircraftStatus;\n  /// @notice Used in case of needing to stop the contract\n  /// @dev Used to implement the circuit breaker pattern\n  bool public breaker = false;\n\n  enum Status {Active, Maintenance}\n\n  struct FlightLog {\n    uint date;\n    address pilot;\n    uint flightHours;\n    string comment;\n  }\n  event LogFlightHour(address pilot, uint flightHours, uint date);\n  event LogMaintenance(address mechanic, uint date);\n\n\n  modifier onlyOwner() { require (msg.sender == owner, \"Only owner can call\"); _;}\n  modifier onlyCoOwner() { require (coOwner[msg.sender] == true, \"Only coowner can log hours\"); _;}\n  modifier enoughPay(uint _flightHours) { require (msg.value >= (pricePerHour.mul(_flightHours)), \"Not enough value\"); _;}\n  modifier refundExtraPayment(uint _flightHours) {\n    _;    \n    uint refundAmount = msg.value.sub(pricePerHour.mul(_flightHours));\n    msg.sender.transfer(refundAmount);\n  }\n  modifier aircraftActive() {require(aircraftStatus == Status.Active); _;}\n  modifier aircraftInMaintenance() {require(aircraftStatus == Status.Maintenance); _;}\n  modifier stopEmergency() {require(!breaker); _;}\n  modifier onlyEmergency() {require(breaker); _;}\n\n  /// @notice Creates a new aircraft\n  /// @param _tailNumber Stores the identification of the aircraft\n  /// @param _initialHours Sets the initial number of hours for the aircraft (current number of hours)\n  /// @param _pricePerHour Sets the price per hour to pay for each hour flown by pilots\n  constructor(string memory _tailNumber, uint _initialHours, uint _pricePerHour) public {\n    owner = msg.sender;\n    coOwner[msg.sender] = true;\n    tailNumber = _tailNumber;\n    flightHours = _initialHours;\n    pricePerHour = _pricePerHour;\n  }\n\n  /// @notice Adds a co-owner to the aircraft\n  /// @param _coowner Indicate the address of the co-owner to add\n  function addCoOwner(address payable _coowner) \n    external\n    onlyOwner\n    stopEmergency\n  {\n      coOwner[_coowner] = true;\n  }\n\n  /// @notice Removes a co-owner from the aircraft\n  /// @param _coowner Indicate the address of the co-owner to remove\n  function removeCoOwner(address payable _coowner) \n    external\n    onlyOwner\n    stopEmergency\n  {\n      coOwner[_coowner] = false;\n  }\n\n  /// @notice Updates the price per hour\n  /// @param _newprice Indicates the new price per hour\n  function updatePrice(uint _newprice) \n    external\n    onlyOwner\n  {\n      pricePerHour = _newprice;\n  }\n\n  /// @notice Gets the balance of the aircraft\n  /// @return Balance available for aircraft\n  function getBalance() public view onlyCoOwner returns(uint) {\n    return address(this).balance;\n  }\n\n  /// @notice Logs a new flight, using the sender as pilot, date as now. Can only be logged if aircraft is active.\n  /// @param _flighthours Indicates the number of flight hours to log\n  /// @param _comment Logs any comments on this flight\n  /// @return True if the log was correctly recorded\n    function logFlightHours(uint _flighthours, string calldata _comment) \n    public \n    payable\n    stopEmergency \n    onlyCoOwner\n    aircraftActive \n    enoughPay(_flighthours)\n    refundExtraPayment(_flighthours)\n    returns(bool)\n    {\n    log.push(FlightLog({date: now, pilot: msg.sender, flightHours: _flighthours, comment: _comment}));\n    flightHours = flightHours.add(_flighthours);\n    flightHoursPerPilot[msg.sender] = flightHoursPerPilot[msg.sender].add(_flighthours);\n    emit LogFlightHour(msg.sender, _flighthours, now);\n\n    return true;\n  }\n\n  /// @notice Send the aircraft to the mechanic\n  /// @param _mechanic Indicates the address of the mechanic that will serve the aircraft\n  /// @param _maxPay Indicates maximum amount to pay for this service\n  /// @return True if the change of state was correctly recorded\n  function sendToMechanic(address payable _mechanic, uint _maxPay)\n      external\n      stopEmergency\n      aircraftActive\n      onlyOwner\n      returns (bool)\n    {\n      emit LogMaintenance(_mechanic, now);\n      mechanic = _mechanic;\n      maxPayment = _maxPay;\n      aircraftStatus = Status.Maintenance;\n      return true;\n    }\n\n  /// @notice Update maximum payment for the mechanic\n  /// @param _maxPay Indicates maximum amount to pay for this service\n  function setMaxPayment(uint _maxPay)\n      external\n      onlyOwner\n    {\n      maxPayment = _maxPay;\n    }\n  \n  /// @notice Receive the aircraft from the mechanic and pay for the service if it is below the allowed maximum\n  /// @param _amount Indicates  amount to pay for this service\n  /// @return True if the change of state was correctly recorded\n  function ReceiveFromMechanic(uint _amount) external payable stopEmergency returns(bool) {\n    // We allow owner to also receive from mechanic to avoid lock. First option is mechanic as it is the most likely (short circuit)\n    require(_amount <= maxPayment, \"Requested payment exceeds maximum set by owner\");\n    require(address(this).balance >= _amount, \"Not enough balance to pay for the service.\");\n    require(msg.sender == mechanic || msg.sender == owner, \"Can only be called by mechanic or owner\");\n    aircraftStatus = Status.Active;\n    mechanic.transfer(_amount);\n    return(true);\n  }\n\n  /// @notice Get the complete flight log\n  /// @return Complete flight log of this aircraft\n  function getFlightLog() public view returns(FlightLog[] memory) {\n    return log;\n  }\n\n  /// @notice Toggle Breaker to set or stop emergency. Only owner can set it.\n  /// @dev Toggles breaker for circuit breaker pattern\n  function toggleEmergency() \n  public\n  onlyOwner\n  {\n    breaker = !breaker;\n  }\n\n  /// @notice Destroy aircraft and return funds to owner\n  function deleteAircraft() \n  public\n  onlyEmergency\n  onlyOwner\n  {\n    selfdestruct(owner);\n  }\n\n  /// @notice Allow to add funds if there is not enough\n  receive() external payable { \n    // We just add the funds to the aircraft balance\n  }\n\n}\n",
  "sourcePath": "/home/felix/Projects/AircraftManager/contracts/AircraftManager.sol",
  "compiler": {
    "name": "solc",
    "version": "0.6.12+commit.27d51765.Emscripten.clang"
  },
  "schemaVersion": "3.3.3",
  "updatedAt": "2020-12-22T06:08:40.064Z",
  "networkType": "ethereum",
  "devdoc": {
    "author": "Felix Halcartegaray",
    "details": "The contract implements basic transactions, assumes co-owners are also pilots and no flights happen outside the contract",
    "kind": "dev",
    "methods": {
      "ReceiveFromMechanic(uint256)": {
        "params": {
          "_amount": "Indicates  amount to pay for this service"
        },
        "returns": {
          "_0": "True if the change of state was correctly recorded"
        }
      },
      "addCoOwner(address)": {
        "params": {
          "_coowner": "Indicate the address of the co-owner to add"
        }
      },
      "constructor": {
        "params": {
          "_initialHours": "Sets the initial number of hours for the aircraft (current number of hours)",
          "_pricePerHour": "Sets the price per hour to pay for each hour flown by pilots",
          "_tailNumber": "Stores the identification of the aircraft"
        }
      },
      "getBalance()": {
        "returns": {
          "_0": "Balance available for aircraft"
        }
      },
      "getFlightLog()": {
        "returns": {
          "_0": "Complete flight log of this aircraft"
        }
      },
      "logFlightHours(uint256,string)": {
        "params": {
          "_comment": "Logs any comments on this flight",
          "_flighthours": "Indicates the number of flight hours to log"
        },
        "returns": {
          "_0": "True if the log was correctly recorded"
        }
      },
      "removeCoOwner(address)": {
        "params": {
          "_coowner": "Indicate the address of the co-owner to remove"
        }
      },
      "sendToMechanic(address,uint256)": {
        "params": {
          "_maxPay": "Indicates maximum amount to pay for this service",
          "_mechanic": "Indicates the address of the mechanic that will serve the aircraft"
        },
        "returns": {
          "_0": "True if the change of state was correctly recorded"
        }
      },
      "setMaxPayment(uint256)": {
        "params": {
          "_maxPay": "Indicates maximum amount to pay for this service"
        }
      },
      "toggleEmergency()": {
        "details": "Toggles breaker for circuit breaker pattern"
      },
      "updatePrice(uint256)": {
        "params": {
          "_newprice": "Indicates the new price per hour"
        }
      }
    },
    "stateVariables": {
      "aircraftStatus": {
        "details": "Currently has two status, but should have more (for example AOG, aircraft on ground)"
      },
      "breaker": {
        "details": "Used to implement the circuit breaker pattern"
      }
    },
    "title": "Aircraft Management smart contract for aircraft logs and maintenance",
    "version": 1
  },
  "userdoc": {
    "kind": "user",
    "methods": {
      "ReceiveFromMechanic(uint256)": {
        "notice": "Receive the aircraft from the mechanic and pay for the service if it is below the allowed maximum"
      },
      "addCoOwner(address)": {
        "notice": "Adds a co-owner to the aircraft"
      },
      "aircraftStatus()": {
        "notice": "Indicates if the aircraft is ready to fly or in maintenance."
      },
      "breaker()": {
        "notice": "Used in case of needing to stop the contract"
      },
      "constructor": "Creates a new aircraft",
      "deleteAircraft()": {
        "notice": "Destroy aircraft and return funds to owner"
      },
      "flightHours()": {
        "notice": "Total flight hours of this aircraft"
      },
      "getBalance()": {
        "notice": "Gets the balance of the aircraft"
      },
      "getFlightLog()": {
        "notice": "Get the complete flight log"
      },
      "log(uint256)": {
        "notice": "All detailed flight activity for this aircraft"
      },
      "logFlightHours(uint256,string)": {
        "notice": "Logs a new flight, using the sender as pilot, date as now. Can only be logged if aircraft is active."
      },
      "pricePerHour()": {
        "notice": "Price to pay per hour of flight"
      },
      "removeCoOwner(address)": {
        "notice": "Removes a co-owner from the aircraft"
      },
      "sendToMechanic(address,uint256)": {
        "notice": "Send the aircraft to the mechanic"
      },
      "setMaxPayment(uint256)": {
        "notice": "Update maximum payment for the mechanic"
      },
      "tailNumber()": {
        "notice": "The TailNumber is the identification of the aircraft, a unique identifier worldwide (in the US also known as N-number)"
      },
      "toggleEmergency()": {
        "notice": "Toggle Breaker to set or stop emergency. Only owner can set it."
      },
      "updatePrice(uint256)": {
        "notice": "Updates the price per hour"
      }
    },
    "notice": "This contract allows to manage co-owners, log and pay their flight hours and log maintenance and pay to the mechanic.",
    "version": 1
  }
}